:020000040800F2
:10000000E00A00202D0200087F2C00081F260008AF
:100010007D2C000835050008A7310008000000000D
:10002000000000000000000000000000392D000862
:100030005105000800000000812C00083B2D00083D
:10004000470200084702000847020008470200086C
:10005000470200084702000847020008470200085C
:10006000470200084702000847020008470200084C
:10007000470200084702000847020008470200083C
:100080003905000845050008470200080000000087
:10009000000000000000000000000000470200080F
:1000A000470200084702000847020008470200080C
:1000B000470200080000000000000000470200089E
:1000C00047020008470200084702000847020008EC
:1000D00047020008470200084702000847020008DC
:1000E000470200084702000800000000000000006E
:1000F0000000000000000000000000000000000000
:1001000000000000000000000000000000000000EF
:10011000000000000000000047020008000000008E
:10012000470200084702000847020008470200088B
:10013000470200080000000000000000000000006E
:10014000470200084702000847020008470200086B
:10015000470200084702000847020008470200085B
:1001600047020008470200080000000000000000ED
:10017000000000004702000800000000000000002E
:1001800047020008470200084702000800F002F892
:1001900000F03CF80AA090E8000C82448344AAF1E5
:1001A0000107DA4501D100F031F8AFF2090EBAE8E3
:1001B0000F0013F0010F18BFFB1A43F0010318479B
:1001C000F05C0000105D0000103A24BF78C878C1D0
:1001D000FAD8520724BF30C830C144BF04680C604D
:1001E000704700000023002400250026103A28BF95
:1001F00078C1FBD8520728BF30C148BF0B60704799
:100200001FB505F07AFD1FBD10B510BD00F001F956
:100210001146FFF7F5FF04F0C7F800F01FF903B42B
:10022000FFF7F2FF03BC00F027F900000948804700
:1002300009480047FEE7FEE7FEE7FEE7FEE7FEE7C8
:10024000FEE7FEE7FEE7FEE704480549054A064BE0
:1002500070470000AD2D00088D010008E00400206B
:10026000E00A0020E0060020E006002053EA020C2D
:1002700000F069802DE9F04B4FF00006002B1FBF06
:10028000B3FA83F503FA05F424FA05F65E4012BFCB
:100290001643B2FA82F502FA05F4C5F120051EBF35
:1002A00022FA05FC44EA0C04203556EA044C4FEAD5
:1002B000144418BF641C4FF000084FF0000990422E
:1002C00071EB030C39D3002919BFB1FA81F701FA98
:1002D00007F6B0FA80F700FA07F6C7F120071EBF4D
:1002E00020FA07FC46EA0C062037B6FBF4FCA7EB25
:1002F0000507103F07F01F0BCBF120060CFA0BFB94
:100300002CFA06F644BFB3460026202FA4BF5E4653
:100310004FF0000B5BEA060C08BF4FF0010B19EB26
:100320000B09ABFB027C48EB0608C01B06FB02CCAA
:100330000BFB03CC71EB0C01C1E70B4602464146B7
:100340004846BDE8F08B13B54FF000004FF00001B8
:10035000AFF30080BDE81C40704710B5203AC0F0F4
:100360000B80B1E81850203AA0E81850B1E81850B6
:10037000A0E81850BFF4F5AF5FEA027C24BFB1E8F3
:100380001850A0E8185044BF18C918C0BDE8104064
:100390005FEA827C24BF51F8043B40F8043B08BF6D
:1003A0007047D20728BF31F8023B48BF11F8012B34
:1003B00028BF20F8023B48BF00F8012B70474FF0E0
:1003C000000200B5134694469646203922BFA0E8A5
:1003D0000C50A0E80C50B1F12001BFF4F7AF0907B1
:1003E00028BFA0E80C5048BF0CC05DF804EB8900A2
:1003F00028BF40F8042B08BF704748BF20F8022BE5
:1004000011F0804F18BF00F8012B704770477047FC
:100410007047754600F02CF8AE4605006946534615
:1004200020F00700854618B020B5FFF70DFFBDE8A6
:1004300020404FF000064FF000074FF000084FF04B
:10044000000B21F00701AC46ACE8C009ACE8C009DC
:10045000ACE8C009ACE8C0098D46704710B5044649
:10046000AFF300802046BDE81040FFF7D8BE000083
:10047000004870477C04002001491820ABBEFEE70D
:100480002600020070470000F8B5044600200090E6
:100490002068816811F0010F41D18168214A114221
:1004A0002ED18168D5432940491C81601E4880684F
:1004B00000F0E07000020DD51C481D490068B0FB3B
:1004C000F1F0401C00EB4000800000E0401E009076
:1004D0000028FBD100F0CCFE06461BE0816811F03D
:1004E000010F03D181682940491C816000F0C0FEE2
:1004F000801B02280ED920680068C043C00709D0BD
:10050000606D40F010006065A06D40F00100A065D6
:100510000120F8BD20680168C943C907DED1002069
:10052000F8BD00003F000080000304509C00002044
:10053000400D0300FEE70000014800F0B1BC0000E0
:10054000B0030020014800F0ABBC000068030020AD
:10055000704772B6FEE700002DE9F047044690F8B8
:1005600050009AB00E464FF00009012816D0012025
:1005700084F850000025159516952C4F2068B84238
:1005800010D1DFF8AC80CDF80080404602F00AFAC6
:100590008246206802F006FA60B10EE002201AB02E
:1005A000BDE8F087606D40F02000606584F8505031
:1005B0000120F4E7BAF1000F0AD0606D40F020008E
:1005C00060654FF0010900BF84F850504846E6E7E7
:1005D0001848326840F61F71002A826822F460428F
:1005E00016D094F8303042EA433273681A4382607E
:1005F000BA68D8F8083002F0010203F001031A4388
:10060000E2D1B36832681A4383688B431A430BE024
:100610008260BA68D8F8083002F0010203F00103E2
:100620001A43D1D182688A438260CDE7000004502A
:1006300000010450000304502DE9F84F0027044640
:10064000009790F85000DFF8D0930D46B846012887
:1006500011D0012684F85060206802F09FF960B143
:10066000606D40F0200060655FF0010784F8508005
:10067000384600F0E7B90220FBE768680C2305283C
:1006800012D8022807D0032807D0042807D005284D
:1006900007D0062007E06B6006E0122003E0182078
:1006A00001E04FF480706860D5E90021206803EA1A
:1006B00091131844036B01F01F014FF01F0C0CFA4B
:1006C00001FCC2F3846223EA0C038A4013430363F0
:1006D000206802F063F98246206802F05BF95AEA6A
:1006E000000025D1AA6829682068B2F1004F20D007
:1006F00002F064F92068416921F0004141612068FD
:100700006969C268C2F3C102520091402A69042A91
:1007100017D000EB82002B68026EDFF800C303F0F5
:10072000F84302EA0C020B431A4342F0004101660F
:100730007AE0002202F042F92068416941F000416C
:10074000DCE7002102F020F9400320684FF00001AF
:1007500072D002F019F990FAA0F0B0FA80F128688E
:1007600042036ED090FAA0F0B0FA80F0814204D13A
:1007700000221146206802F030F90121206802F0C1
:1007800003F9400320684FF001015DD002F0FCF84E
:1007900090FAA0F0B0FA80F12868420359D090FA9C
:1007A000A0F0B0FA80F0814204D10022012120683B
:1007B00002F013F90221206802F0E6F840032068F5
:1007C0004FF0020148D002F0DFF890FAA0F0B0FA42
:1007D00080F12868420344D090FAA0F0B0FA80F08B
:1007E000814204D100220221206802F0F6F80321A0
:1007F000206802F0C9F8400320684FF0030133D0AD
:1008000002F0C2F890FAA0F0B0FA80F12868420332
:100810002FD090FAA0F0B0FA80F0814204D10022EB
:100820000321206802F0D9F82068816811F0010FD7
:1008300022D0ACE000E004E002F0A6F8C0F384614E
:100840008DE7C0F3846091E702F09EF8C0F3846105
:10085000A2E7C0F38460A6E702F096F8C0F38461D3
:10086000B7E7C0F38460BBE702F08EF8C0F38461A1
:10087000CCE7C0F38460D0E72A7B296850F8B03F0A
:10088000C1F3120C23EA0C0302F0180C644A22FA9A
:100890000CF20A4013430360E968494577D12868A0
:1008A00041031CD090FAA0F1B1FA81F1491C01F08A
:1008B0001F0109294FEA403132D8002912D000BF68
:1008C00090FAA0F1B1FA81F101F1010101F01F01EB
:1008D00006FA01F609D100BFC0F3846109E0C0F354
:1008E0008461E3E7C0F38461EEE790FAA0F1B1FA26
:1008F00081F101F1010101F01F0146EA816102D19C
:10090000C0F3846003E090FAA0F0B0FA80F000F148
:10091000010000F01F0000EB400041EA005132E00E
:1009200000290ED090FAA0F1B1FA81F101F1010194
:1009300001F01F0106FA01F606D100BFC0F3846181
:1009400006E0C0F38461F1E790FAA0F1B1FA81F119
:1009500001F1010101F01F0146EA816102D1C0F3FA
:10096000846003E090FAA0F0B0FA80F000F101009A
:1009700000F01F002B4A00EB400002EB005041EA60
:10098000000141F00071AA68206802F017F82648BB
:100990002A6802423FF46AAE24488168244D254B00
:1009A00001F0E071AA421BD10D0219D422689A42CB
:1009B0007FF45CAE826841F4000122F0E0720A43E9
:1009C00082601D481D490068B0FBF1F0401C00EB3F
:1009D0004000800000E0401E00900028FBD145E66A
:1009E000174DAA4207D1CD0105D422689A42F6D10B
:1009F00041F080710AE06FF00045EA42EFD14A020F
:100A0000EDD422689A42EAD141F48001826822F052
:100A1000E0720A43826029E600007F4000F0FF0395
:100A2000FFFF0700000020FE0000088000030450C4
:100A3000000052C7000004509C000020400D03003D
:100A4000000084CB18BCBDE8E08F0068006C7047E4
:100A5000F8B54FF0000504002E46009502D0606DF9
:100A600010B107E00120F8BD204600F0D1F8A665DE
:100A700084F8506020688168C1F3407119B18168C1
:100A80005A4A1140816020688168C1F3007189B9B8
:100A90008168574A114041F080518160554856495C
:100AA0000068B0FBF1F04000801C00E0401E0090A8
:100AB0000028FBD120688168C1F3007141B9616DE4
:100AC00041F010016165A16D41F00101A1650125B1
:100AD00001F064FF616DC90600D430B1606D40F073
:100AE0001000606501252846F8BD606D20F4807017
:100AF00040F0020060652068806810F0010F10D19E
:100B00003E4880683E4900F00100896801F001011B
:100B1000084306D13B4960688A6822F47C1202438C
:100B20008A60E168606B627E0843A16841EA4231F5
:100B3000084394F8201040EA0140012904D1A18C17
:100B4000314A02EB41410843A16A29B101F47071B5
:100B5000E26A014342EA01002268D1682B4B194046
:100B60000143D160206801F019FF0646206801F0BA
:100B700011FF304315D1207E94F830102268800395
:100B800040EA4100D16844F2020399430143D16035
:100B900094F8380001280CD02068016921F0010187
:100BA0000161206901282068016B21F00F0111D03B
:100BB00013E0D4E90F010843D4E9111211430843AB
:100BC00021680A6940F2FC739A43104340F0010027
:100BD0000861E6E7E269521E11430163606D20F08F
:100BE000020040F0010060657DE70000C0FFFF5F8C
:100BF000C0FFFF7F9C000020400D03000000045058
:100C000000010450000304500000FEFF07C0F0FF85
:100C1000F0B587B0044614216846FFF7D0FB214B9E
:100C20001F4F26681A6800240B251F49521C4FF0DD
:100C30009040BE4214D11A60012A07D1CA6C42F416
:100C40000052CA64CA6C02F400520592CA6C42F0A7
:100C50000102CA64C96C01F001010591102116E07E
:100C6000124FBE4219D11A60012A07D1CA6C42F450
:100C70000052CA64CA6C02F400520592CA6C42F077
:100C80000102CA64C96C01F0010105910821CDE996
:100C900000150294694600F0D3F907B0F0BD0000DA
:100CA000000004508C00002000100240000104509D
:100CB0002DE9F04104463A480F46816801F01F05CE
:100CC000616908290FD085B1052D0ED0092D0CD0F2
:100CD000806800F4604060B1606D40F020006065A5
:100CE0000120BDE8F081082604E02068C068C00744
:100CF000F1E7042600F0BCFA804615E0781C13D01A
:100D000000F0B6FAA0EB0800B84200D867B9206836
:100D10000068304208D1606D40F00400606500203A
:100D200084F850000320DCE7206800683042E5D0FA
:100D3000606D40F400706065206801F037FE80B19E
:100D4000607E70B92068006800070AD5606D20F4E5
:100D500080706065606DC00403D4606D40F0010078
:100D60006065104A20681049904201D10B4600E0AE
:100D70000346834210D07DB1052D0DD0092D0BD037
:100D8000904200D00146C968082E07D0490401D41A
:100D90000C2101600020A4E7C168F5E70821F8E70D
:100DA0000003045000010450000004502DE9F041FC
:100DB00004463748806800F01F05206801F0EEFD0A
:100DC00018B102210846BDE8F08194F850000128CE
:100DD0000CD0012084F850002046FFF755FB01009D
:100DE0004FF0000304D084F85030EBE70220EAE72C
:100DF000606D40F60162904340F480706065254A62
:100E00002068254E904201D1374600E007468742D0
:100E100000D01DB9676D27F480176765676DFF0403
:100E200004D5A76D27F00607A76500E0A3651C277A
:100E3000076084F850302068904201D1334600E0CA
:100E40000346834215D0A5B1052D12D0092D10D02F
:100E5000636D43F480136365904200D13046C068EF
:100E60008001AFD5606D20F4005040F48050606583
:100E7000A8E7C268920105D5626D22F4005242F4DF
:100E8000805262658268054B1A40121D826099E7A4
:100E9000000304500001045000000450C0FFFF7F15
:100EA000F0B4016C0C6801680D6890F8442002F001
:100EB0001C06042202FA06F3234211D06B070FD559
:100EC0000B689B0603D40B6823F004030B6090F8B7
:100ED000441001F01C018A40016C4A60016B1DE066
:100EE000022303FA06F727424FF0000C4FF00102ED
:100EF00018D0AF0716D50C68A40605D40C6824F0EA
:100F00000A040C6080F8252090F8441001F01C01C0
:100F10008B40016C4B6080F824C0C16A00291AD054
:100F2000F0BC08470823B340234214D02B0712D546
:100F30000B6823F00E030B6090F84410036C01F073
:100F40001C0102FA01F15960C26380F8252080F883
:100F500024C0416BE2E7F0BC7047000070B568B197
:100F60002B4C036814212B4AA34209D22A4C1C445F
:100F7000B4FBF1F18900C0E910210BE0012070BD44
:100F8000234C64421C44B4FBF1F1890041642049C4
:100F900008390164022180F825101C6847F6F071B9
:100FA0008C43D0E902152943D0E90456354329433F
:100FB00085692943C5692943056A29432143196085
:100FC0008168B1F5804F19D0036C0F21934202D193
:100FD00052F8A83F02E00E4AA032136890F844404D
:100FE00004F01C04A1408B43136090F84430416826
:100FF00003F01C0399401368194311600021C16379
:10100000012280F8252080F82410084670BD0000D9
:101010000804024000000240F8FFFDBF70B504461E
:1010200000F026F90546601C02D00448007804440C
:1010300000F01EF9401BA042FAD370BD90000020C2
:101040002DE9F04FDFF80092002301260325A9F1D6
:10105000040B85B00F2709F1040AABF1040EEAE096
:1010600006FA03F422407CD091F804C00CF0030C83
:10107000BCF1010F02D0BCF1020F26D1D0F808C09C
:10108000CDF800C04FEA430C05FA0CF8CDF810C0BB
:10109000DDF800C02CEA080CCDF800C0D1F80C80B7
:1010A000DDF810C008FA0CF8DDF800C048EA0C08BA
:1010B000C0F80880D0F804C02CEA040C0C79C4F302
:1010C00000149C4044EA0C0444600C79E443A407F7
:1010D0000DD0D0F80CC04FEA430805FA08F42CEA0A
:1010E000040C8C6804FA08F444EA0C04C4600C791B
:1010F00004F00304022C19D1DC0800EB84040294F0
:10110000246A4FEA437C4FEADC6CCDF810C007FA42
:101110000CFC24EA0C04D1F81080DDF810C008FAA9
:101120000CF848EA0408029CC4F8208004684FEADE
:10113000430805FA08FC24EA0C0491F804C00CF0FA
:10114000030C0CFA08FC4CEA040CC0F800C04C6814
:1011500014F4403F6ED03D4CD4F860C04CF0010C0C
:1011600000E067E0C4F860C0246E23F0030C04F0D4
:1011700001040094364C64440294A4684FEA837CD2
:101180004FEA1C7807FA08FC24EA0C04B0F1904FEF
:1011900006D0DFF8C0C0604505D14FF0010C12E069
:1011A0004FF0000C0FE0DFF8B0C0604502D14FF007
:1011B000020C08E0DFF8A4C0604502D14FF0030C38
:1011C00001E04FF0070C0CFA08FC4CEA040C029CFE
:1011D000C4F808C0D9F80040CC46D1F80480944344
:1011E0005FEAC82800D51443CCF80040DAF8004084
:1011F000D446D1F8048094435FEA882800D514438C
:10120000CCF80040DBF80040DC46D1F80480944381
:101210005FEA883800D51443CCF80040DEF800407F
:10122000F446D1F8048094435FEAC83800D51443EB
:10123000CCF800405B1C0A6832FA03F47FF410AF6C
:1012400005B000F00DB80000080401400010024095
:10125000000001400004004800080048000C00485D
:1012600030BCBDE8C08F0AB18161704781627047B0
:1012700001488068704700009000002090F84120ED
:10128000202A24D190F84020012A20D0012280F881
:101290004020242280F841200268136823F00103D3
:1012A00013600268136823F48053136002681368A4
:1012B0000B43136001680A6842F001020A602021B2
:1012C00080F84110002180F8401008467047022045
:1012D000704790F84120202A22D190F84020012A1E
:1012E0001ED0012280F84020242280F8412002688C
:1012F000136823F0010313600268136823F470631A
:1013000043EA0121116001680A6842F001020A60A3
:10131000202180F84110002180F8401008467047D5
:101320000220704770B5040004D094F841000025F5
:1013300010B106E0012070BD84F84050204600F056
:1013400029FA242084F841002068016821F0010175
:1013500001606068216820F0706008612068816821
:1013600021F400418160E0680128A06807D040F4C2
:10137000044021688860E068022803D006E040F459
:101380000040F6E721684FF400604860206841683B
:10139000114A114341602068C16821F40041C160D5
:1013A000D4E904010843A16940EA01202168C8602A
:1013B000D4E907010843216808602068016841F00A
:1013C000010101606564202084F84100256384F8F0
:1013D0004250002070BD0000008000022DE9F84F4F
:1013E000044690F84100DDF828A01F4690468B4641
:1013F00020287ED194F8400001287AD0012084F87A
:101400004000FFF735FF0646012200901923D10363
:10141000204601F0F1F9E0BB222084F841001020C1
:1014200084F8420000256564C4F8248067856563FC
:10143000618D3148FF274FF080784FF00079FF2908
:1014400003D927853A46009039E0618D21850090C7
:101450003AE05946204601F0B7F913E001F0F8F9F7
:10146000B8B92068406A616A0870606A401C6062AE
:10147000208D401E80B22085618D491E6185618D61
:1014800001B168B1608D3246002851462046E5D151
:1014900000E002E001F02AFAD0B1012000F030B8FB
:1014A0005346002280212046009601F0A5F900282D
:1014B000F3D1608DFF2804D927853A46009543462D
:1014C000C7E7608D2085009594F828204B46C0E73B
:1014D00021682020C86121684A68084B1A404A6088
:1014E00084F8410084F8425084F840500020D5E749
:1014F000FFE70220D2E700000024008000E800FEA1
:1015000018BCBDE8E08F00002DE9F84F044690F8C4
:101510004100DDF828A01F4690468B4620287ED14A
:1015200094F8400001287AD0012084F84000FFF7A9
:101530009FFE0646012200901923D103204601F0A8
:101540005BF9E0BB212084F84100102084F84200C0
:1015500000256564C4F8248067856563618D314822
:10156000FF274FF080784FF00079FF2903D92785B6
:101570003A46009039E0618D218500903AE0594665
:10158000204601F021F913E001F0D6F9B8B9606AFC
:10159000216800788862606A401C6062608D401E2D
:1015A0006085208D401E80B22085618D01B168B1BB
:1015B000608D3246002851462046E5D100E002E029
:1015C00001F094F9D0B1012000F030B85346002268
:1015D00080212046009601F00FF90028F3D1608D9C
:1015E000FF2804D927853A4600954346C7E7608D12
:1015F0002085009594F828204B46C0E721682020DC
:10160000C86121684A68084B1A404A6084F8410062
:1016100084F8425084F840500020D5E7FFE70220CC
:10162000D2E700000020008000E800FE18BCBDE802
:10163000E08F00002DE9FF4F83B00446DDE91087FD
:1016400090F84100DDF848909A469346202871D1E1
:101650005FEA080014D09FB194F84000012869D0D7
:10166000012084F84000FFF703FE064601220090A7
:101670001923D103204601F0BFF800286ED103E002
:101680004FF40070606469E0212084F8410040203C
:1016900084F8420000256564C4F82480678565638A
:1016A000CDE9009653465A462046049901F05AF86F
:1016B00010B184F8405051E0608DFF274FF08078E2
:1016C0004FF0007AFF2804D927853A464346009513
:1016D00005E0608D2085009594F82820534620462B
:1016E000049901F071F832464946204601F024F988
:1016F000A0BB606A216800788862606A401C6062F2
:10170000608D401E6085208D401E80B22085618DD9
:10171000D9B1D0B94B46002280212046009601F075
:101720006BF8D8B9608DFF2805D927853A4643461E
:10173000009506E026E0608D2085009594F828202D
:1017400053462046049901F03FF8608D0028CAD125
:1017500032464946204601F0C9F818B1012007B0C9
:1017600000F014B820682021C16120684268064B4F
:101770001A40426084F8411084F8425084F8405086
:101780000020ECE70220EAE700E800FE30BCBDE8FC
:10179000C08F00002DE9F04F93B0064614210DA82C
:1017A000FEF70DFE34216846FEF709FE4449306815
:1017B000444D1227DFF810B100244FF004094FF018
:1017C00003084FF0800A884251D1402005940090D0
:1017D000684600F051F908B1FEF7BBFEE86C40F036
:1017E0000200E864E86C0FAA00F0020012904FF4C7
:1017F0004070CDE90D07474682E890020DA9584692
:10180000FFF71EFCA86D40F40010A865A86D304DD0
:1018100000F4001012902D482860C5E90174C5E954
:10182000034A6C61AC61EC61574628462C62FFF7B5
:1018300095FB08B1FEF78DFEF563AE62244D23489B
:1018400048351438E5E80208102091C5204845F8CD
:1018500014494830AC61EC612C62FFF77FFB08B1A2
:10186000FEF777FEB563AE6213B000F035B81949E4
:101870008842F9D16846CDF800A0069400F0FCF843
:1018800008B1FEF766FEE86C40F00200E864E86C20
:101890000FAA00F0020012904FF4C040CDE90D07EE
:1018A000012082E801030DA95846FFF7C9FBA86D86
:1018B00040F48000A865A86D00F480001290D3E782
:1018C0000054004000100240000400488000024024
:1018D000680300200058004030BCBDE8C08F000005
:1018E00002488168027811448160704790000020AE
:1018F00010B50024032000F071F80F2000F008F864
:1019000008B1012401E000F025F8204610BD0000D8
:1019100070B50E4E05460024307898B14FF47A71B8
:10192000B1FBF0F00A490968B1FBF0F000F094FD5A
:1019300040B9102D06D200222946501E00F02EF884
:10194000756000E00124204670BD0000900000207A
:101950009C000020094808B5016E41F001010166B4
:10196000016E01F001010091816D41F080518165AE
:10197000806D00F08050009008BD00000010024013
:10198000002809DB00F01F0201219140400980007E
:1019900000F1E020C0F8001170470000F0B40E4BD9
:1019A0001B680C46C3F30223C3F10705042D00D9BD
:1019B0000425191D072901D2002300E0DB1E0126A2
:1019C00006FA05F1491E214099409E40761E1640B8
:1019D0003143F0BC01F0D8BC0CED00E0064900F04A
:1019E000070208684FF6FF03184040EA0220034A46
:1019F00010430860704700000CED00E00000FA059D
:101A00001649B0F5007F0868C0F3412009D00228CC
:101A100005D0086820F4C06040F4806008600020B1
:101A200070470128FBD0086820F4C06040F40070C3
:101A300008600B483222006850430A4AB0FBF2F0BB
:101A4000401C00E0401E4A69520501D50028F9D12A
:101A500048694005E3D5032070470000007000404E
:101A60009C00002040420F000248006800F4C06063
:101A700070470000007000402DE9F84304460068FC
:101A80000026774D80035ED5A86D0027C00008D4DE
:101A9000A86D40F08050A865A86D012700F0805027
:101AA0000090DFF8C091D9F8001041F48071C9F8B6
:101AB0000010FFF7DDFB804606E000BFFFF7D8FB14
:101AC000A0EB080002282BD8D9F80000C005F5D5F6
:101AD000D5F8900010F4407014D0216B814211D0E1
:101AE000D5F89000D5F8901020F4407041F4803182
:101AF000C5F89010D5F8901021F48031C5F89010F9
:101B0000C5F89000C00711D0FFF7B2FB804641F244
:101B1000883907E0FFF7ACFBA0EB0801494501D984
:101B200003260BE0D5F890008007F3D5D5F8900098
:101B3000216B20F440700843C5F890001FB1A86DD8
:101B400020F08050A8652078C00707D0D5F888001D
:101B5000616820F003000843C5F8880020788007FA
:101B600007D5D5F88800A16820F00C000843C5F817
:101B700088002078400707D5D5F88800E16820F074
:101B800030000843C5F888002078800607D5D5F8CE
:101B90008800216920F440600843C5F88800208847
:101BA000800507D5D5F88800216A20F44020084335
:101BB000C5F888002088400507D5D5F88800616AF7
:101BC00020F440100843C5F888002078400607D567
:101BD000D5F88800616920F440500843C5F88800B2
:101BE0002078000607D5D5F88800A16920F4404088
:101BF0000843C5F888002088C00507D5D5F88800B7
:101C0000E16920F440300843C5F8880020884FF08F
:101C1000006180040ED5D5F88800A26A20F04060EB
:101C20001043C5F88800A06A884203D1E86840F4F0
:101C30008010E860206840030ED5D5F88800E26A7D
:101C400020F040601043C5F88800E06A884203D164
:101C5000E86840F48010E8603046BDE8F883000092
:101C600000100240007000402DE9F0470F460500CB
:101C70006BD0494E306800F00700B84209D2306896
:101C800020F0070038433060306800F00700B842A9
:101C90005BD12878414C80070AD5A868A16801F07B
:101CA000F001884204D9A16821F0F0010143A1604C
:101CB0002878C0072CD06868032811D0022812D0D9
:101CC000216898B1490500293FDAA16821F0030194
:101CD0000143A160FFF7CCFA804641F2883910E059
:101CE00021688901EFE721688903ECE78907EAE7C2
:101CF000FFF7BEFAA0EB0801494502D90320BDE871
:101D0000F087A068696800F00C00B0EB810FEFD19C
:101D1000287880070AD5A868A16801F0F0018842F8
:101D200004D2A16821F0F0010143A160306800F005
:101D30000700B8420BD9306820F007003843306004
:101D4000306800F00700B84201D00120D7E72878BA
:101D5000400705D5A068E96820F4E0600843A0606A
:101D60002878000706D5A068296920F4605040EA69
:101D7000C100A06000F03EF8A168094AC1F3031158
:101D8000515C01F01F01C840064908600648006820
:101D9000BDE8F047FFF7BCBD002002400010024044
:101DA000685E00089C000020940000200548064959
:101DB00000688968054AC1F30221515C01F01F01E6
:101DC000C84070479C00002000100240A85E000838
:101DD0000548064900688968054AC1F3C221515C7B
:101DE00001F01F01C84070479C0000200010024015
:101DF000A85E000870B52549002318468A68CC689B
:101E000012F00C0204F00306214C4FEA640509D0DD
:101E10000C2A05D0042A32D0082A00D1284670BDE9
:101E2000012E10D10B681B0704D4D1F89430C3F3F2
:101E3000032302E00B68C3F30313164E56F8233056
:101E4000DAB10C2AEBD1C86800F00300022818D0E0
:101E5000032818D01846CA68CB68C2F30212C3F32D
:101E600006234343521CB3FBF2F2C868C0F341603F
:101E7000401C4000B2FBF0F070BD184670BD20461B
:101E800070BD2046E7E72846E5E700000010024065
:101E90000024F400785E00082DE9F84304006FD0B8
:101EA000FE4DA86800F00C06E86800F003072078F3
:101EB000C00664D576B10C2E01D1012F0AD0E0699D
:101EC000002828687AD040F001002860FFF7D0F998
:101ED00080465DE02868800702D5E0690028DED0F2
:101EE000616A2868000703D5286800F0F00004E064
:101EF000D5F89400F02202EA1010814216D9084663
:101F000000F0C0FE00283BD1286840F0080028609F
:101F10002868616A20F0F000084328606868216A38
:101F200020F47F4040EA0120686016E0286840F015
:101F3000080028602868616A20F0F00008432860E3
:101F40006868216A20F47F4040EA0120686026B971
:101F5000606A00F097FE0028D5D1FFF74BFFA96813
:101F6000CF4AC1F30311515C01F01F01C840CD49B4
:101F70000860CD480068FFF7CBFC00287ED12EE03A
:101F8000C4E000BFFFF774F9A0EB0800022876D880
:101F900028688007F6D5286840F00800286028687F
:101FA000616A20F0F000084328606868216A20F424
:101FB0007F4040EA0120686011E0FFE720F0010067
:101FC0002860FFF755F9804606E000BFFFF750F99B
:101FD000A0EB08000228DAD828688007F6D4207819
:101FE000C00740D0082E18D00C2E01D1032F14D0DA
:101FF0006068B0F5803F17D0B0F5A02F286817D0E3
:1020000020F480302860286820F4802028606068F0
:10201000E0B1FFF72DF9804614E02868800322D54F
:102020006068002872D01EE0286840F48030EDE738
:1020300040F480202860F7E7FFF71AF9A0EB0800CA
:102040006428A4D828688003F6D50CE0FFF710F9BF
:10205000804605E0FFF70CF9A0EB0800642896D84D
:1020600028688003F6D4207880073BD5042E11D051
:102070000C2E01D1022F0DD0E06801E0DAE117E16A
:10208000002828681ED040F480702860FFF7F0F820
:1020900007460CE0286840050CD5E0680028C1D050
:1020A00008E000BFFFF7E4F8C01B022893D82868B7
:1020B0004005F7D56868217C20F0FE4040EA0160C9
:1020C00068600FE020F480702860FFF7D1F80746C1
:1020D00005E000BFFFF7CCF8C01B0228B1D8286884
:1020E0004005F7D42078000753D560690028D5F85B
:1020F00094003DD0A16900F01002914223D08107E5
:102100004FEAC07003D500288CD001E071E190B196
:10211000D5F8940020F00100C5F89400FFF7A8F866
:10212000074604E0FFF7A4F8C01B112889D8D5F8AA
:1021300094008007F6D4D5F89400A16920F010002F
:102140000843C5F89400D5F8940040F00100C5F8A4
:102150009400FFF78DF8074605E000BFFFF788F809
:10216000C01B1128A2D8D5F894008007F6D510E03E
:1021700020F00100C5F89400FFF77AF8074604E064
:10218000FFF776F8C01B112890D8D5F89400800787
:10219000F6D42078400778D5A86D0027C00008D471
:1021A000A86D40F08050A865A86D012700F0805010
:1021B00000903E480168C90512D40168814641F487
:1021C00080710160FFF754F8804605E0FFF750F892
:1021D000A0EB080002286BD8D9F80000C005F5D59F
:1021E000A068C10720D0D5F8901000F0800021F041
:1021F00080010143C5F89010207A400705D5D5F835
:10220000900040F00400C5F89000D5F8900040F030
:10221000010000BFC5F89000A06841F28839D0B134
:10222000FFF726F8804611E0D5F8900020F0010075
:10223000C5F89000D5F8900020F00400EAE700BF50
:10224000FFF716F8A0EB0801494531D8D5F8900002
:102250008007F5D514E0FFF70BF8804606E000BFD5
:10226000FFF706F8A0EB0801494521D8D5F8900002
:102270008007F5D4D5F8900020F08000C5F89000D4
:102280001FB1A86D20F08050A8652078800634D555
:10229000A06A0028D5F898001ED00AE0001002407D
:1022A000685E00089C000020940000200070004040
:1022B0008CE040F00100C5F89800FEF7D9FF074612
:1022C00005E000BFFEF7D4FFC01B02287ED8D5F87A
:1022D00098008007F6D510E020F00100C5F89800BE
:1022E000FEF7C6FF074604E0FEF7C2FFC01B022848
:1022F0006CD8D5F898008007F6D4E06AD8B30228E5
:1023000009D00C2E75D0286820F080702860FEF768
:10231000AFFF044690E0E868226B00F003019142B1
:102320001FD1616B00F0700209011039914218D180
:10233000A26B00F4FE41B1EB022F12D1A18F00F489
:10234000C00249084905A1F50011914209D194F84C
:10235000401000F0C06049084906A1F100718142B7
:1023600048D00C2E71D0286820F080702860FEF7CD
:102370007FFF064605E055E0FEF77AFF801B022846
:1023800057D828688001F7D4D4E90C016FF00F0208
:1023900002EB01110843A18F5204490802EB41519D
:1023A000A26B41EA0221084394F840104FF07E42AC
:1023B000490802EB41610843E968254A1140084396
:1023C000E860286840F08070286000E031E0E8684C
:1023D00040F08070E860FEF74BFF044605E000BF68
:1023E000FEF746FF001B022823D828688001F7D596
:1023F00029E02AE02868800125D4286840F0807010
:102400002860E86840F08070E860FEF731FF04461D
:1024100005E000BFFEF72CFF001B022809D8286842
:102420008001F7D50FE000BFFEF722FF001B022856
:1024300002D90320BDE8F88328688001F4D4E86855
:1024400004490840E8600020F4E70120F2E70000BA
:102450008C809FF9FCFFEFFE10B5401EB0F1807F2D
:1024600001D3012010BD4FF0E02460610F216017FF
:1024700000F08AFF0020A06107202061002010BD2D
:1024800010B5040002D0A06F10B107E0012010BD0C
:10249000002084F87400204600F026F82420A0676D
:1024A0002068016821F001010160204600F018FD5C
:1024B0000128ECD0606A10B1204600F07FFC206853
:1024C000416821F4904141602068816821F02A012F
:1024D00081602068016841F0010101602046BDE88B
:1024E000104000F0CFBC000010B594B00446142199
:1024F0000DA8FDF764FF34216846FDF760FF17491A
:102500002068884227D101200024CDE900046846D4
:10251000FFF7B2FA08B1FEF71CF81148016E41F45A
:1025200080410166016E01F480411291C16C41F05D
:102530000201C164C06C0DA900F002001290C0201D
:102540000D900220CDE90E04032010900720119079
:102550000448FEF775FD14B010BD000000380140BE
:1025600000100240000400482DE9F8430446806F43
:102570001F4616460D4620284FD1CDB1C6B194F85E
:102580007400012849D0012084F874004FF000083D
:10259000C4F880802120A067FEF76AFEA4F850608E
:1025A0008146A4F85260A068B0F5805F03D004E0D3
:1025B0000120BDE8F883206928B12E465FF00005B0
:1025C00084F8748010E00026FAE78021204600F0AD
:1025D00087FDB8B9C6B116F8010B21680885B4F8B3
:1025E0005200401EA4F85200B4F852004B464FF07F
:1025F000000200970028E8D14FF04001204600F08B
:102600006FFD30B10320D4E735F8020BC0F30800AA
:10261000E3E72020A0670020CBE70220C9E7FEE720
:1026200001688A69D243920701D400228A62006855
:102630008169C943C90703D0816941F00101816102
:10264000704700002DE9F047044600688A461746A7
:10265000816900252E46C906A9464FF0200849D5B4
:102660001021C16137E000BFBAF1FF3F33D0FEF760
:10267000FFFDC11B514502D8BAF1000F2BD12068D4
:10268000416894F8422001F480418369DB431B04D4
:102690001CD4B1F5804F19D0202A17D0416841F4DD
:1026A00080414160FEF7E4FD07460FE0FEF7E0FDE4
:1026B000C01B19280AD9606C40F02000606484F8BF
:1026C000418084F8429084F8409001252068806918
:1026D000C0438006EAD420688069C043800602D5E2
:1026E000002DC1D003E015B92168C1F81C8046F067
:1026F0000406012521688869C20505D54FF480725A
:1027000046F00106CA610125410509D522684FF44A
:10271000806146F00806D1610125800502D40AE0F7
:10272000800507D521684FF4007046F00206C861A5
:10273000012500E08DB12046FFF772FF54F8240B0D
:102740004168074A11404160206A3043206284F8A2
:102750001D8084F81E9084F81C902846BDE8F08700
:1027600000E800FE2DE9F843044616461548984651
:10277000DDE90897DAB2C3020090204600F024F8A1
:102780003A464946204600F0D7F8B8B9F5B2B8F154
:10279000010F08D02168300A88623A46494620462F
:1027A00000F0CAF850B9206885624B4600228021AB
:1027B0002046009700F020F8002800D00120BDE856
:1027C000F88300000020008010B5C1F3090141EA40
:1027D00002410268029C19432143506821F00041E4
:1027E0004FF4806303EA5453024C23439843084355
:1027F000506010BDFF63FF032DE9F0411D461746F1
:102800000E460446DDF8188008E0681C06D0FEF786
:102810002FFDA0EB0800A8420BD855B120688069B5
:1028200036EA000012D00020B842EED00020BDE809
:10283000F08154F8440F40F0200044F804092020AF
:1028400060700020A07020700120F0E70120EBE70D
:102850002DE9F041202690460F460446002530E041
:10286000424639462046FFF7EDFE10BB20688069DE
:10287000C04380061ED420688169C943490701D43A
:10288000218D19BB8169C943C90604D41021C161D6
:102890000420606400E065642068C66120684168C7
:1028A000114A1140416084F8416084F8425084F834
:1028B000405016E0FEF7DCFCA0EB0800B84208D858
:1028C0003FB120688069C0434007C9D40020BDE8FB
:1028D000F08154F8440F40F0200044F80409667079
:1028E00025700120F3E7000000E800FE70B51646F1
:1028F0000D4604460DE0324629462046FFF7A2FE6B
:1029000008B1012070BDFEF7B3FC801BA84207D8B8
:1029100035B120688069C0438006ECD4002070BDCA
:1029200054F8440F40F0200044F80409202060705F
:102930000020A0702070E4E770B516460D460446EE
:102940000FE0324629462046FFF77CFE08B1012001
:1029500070BD681C05D0FEF78BFC801BA84207D811
:1029600035B120688069C0438007EAD4002070BD7B
:1029700054F8440F40F0200044F80409202060700F
:102980000020A0702070E2E700EB8100006E00F0F4
:10299000F84070478068C0F3C00070478068C0F39B
:1029A000800070478068C0F380007047C06810F4F2
:1029B000406F01D00020704701207047042303EAD4
:1029C000D15310B518444369C1F3045107248C4016
:1029D000A3438A401343436110BD00EB8100016EA5
:1029E00021F00041114301667047000030B589B005
:1029F000002406940794182168460894FDF7DFFC2C
:102A00001C481B490425C0E900148460C460C0E967
:102A10000445047601214176C16180F8204084623A
:102A2000C46280F830400903416380F83840FEF703
:102A30000FF808B1FDF78DFD06A90E480694FDF7C5
:102A40008BFD08B1FDF785FD0B4800900620CDE910
:102A500001047F200594CDE9030569460548FDF78B
:102A6000EBFD002801D0FDF774FD09B030BD00007A
:102A700000000450F80100200002B02570B586B0B7
:102A800018216846FDF79BFC184817490024C0E947
:102A9000001484600426C460C0E90446012504765D
:102AA0004576C56180F820408462C46280F8304079
:102AB0002903416380F83840FDF7CAFF08B1FDF7EC
:102AC00048FD0B4800900620CDE901057F200594C4
:102AD000CDE9030669460548FDF7AEFD002801D0A3
:102AE000FDF737FD06B070BD000104505C02002008
:102AF000000180210D4808B5816C41F0010181641D
:102B0000806C002200F00100009011461020FEF7BA
:102B100045FF1020FEF734FF002211461120FEF77A
:102B20003DFFBDE808401120FEF72ABF001002401B
:102B300030B587B014216846FDF741FC1248C16CDE
:102B400041F00101C164C16C01F001010591C16C4A
:102B500041F00201C164C06C0C4D00F002004FF462
:102B600080540590002221462846FEF77CFB012078
:102B700000210094CDE90101039169462846FEF742
:102B80005FFA07B030BD00000010024000040048AA
:102B9000134810B51149016012494160002101221A
:102BA000C0E90212016141618161C1610162FEF708
:102BB000B9FB08B1FDF7CDFC00210948FEF75EFB2B
:102BC00008B1FDF7C6FC00210548FEF782FB00288E
:102BD00003D0BDE81040FDF7BCBC10BD0054004060
:102BE000C0020020EC9C9010134810B51149016000
:102BF0001249416000210122C0E9021201614161D4
:102C00008161C1610162FEF78DFB08B1FDF7A1FC96
:102C100000210948FEF732FB08B1FDF79AFC0021BC
:102C20000548FEF756FB002803D0BDE81040FDF72D
:102C300090BC10BD0058004014030020EC9C901084
:102C40000D4810B50B4901604FF4E131416000219E
:102C500081600C22C160C0E904128161C16101621E
:102C60004162FFF70DFC002803D0BDE81040FDF7DE
:102C700070BC10BD00380140F8030020FEE7FEE7FD
:102C800070470000F8B51C4D06460024A86DC00032
:102C900002D5FEF7E9FE0DE0A86D40F08050A86572
:102CA000A86D00F080500090FEF7DEFEA96D21F0C7
:102CB0008051A965B0F5007F04D0802E07D94FF070
:102CC00003040AE0802E08D9A02E01D804E001D127
:102CD000022402E0702E00D101240848016821F08E
:102CE000070121430160006800F00700A04201D005
:102CF0000120F8BD0020F8BD001002400020024075
:102D00003EB5010A8DF804108DF805004FF0FF3430
:102D1000022301AA522107480094FEF7F5FB012384
:102D200002AA522103480094FEF758FB9DF80800C0
:102D30003EBD0000140300207047FEF7D1BD00B572
:102D400097B044216846FDF73AFB142111A8FDF71E
:102D500036FB4FF40070FEF753FE08B172B6FEE783
:102D60000220C1010391402104910121CDE90C0110
:102D700000900A21CDE90E100B9010906846FFF7E5
:102D80008BF808B172B6FEE70F2011900320129065
:102D90000020139014901590042111A8FEF764FFF1
:102DA000002801D072B6FEE717B000BD02480168E6
:102DB00041F470010160704788ED00E090F8241044
:102DC000C90706D001684A68836A22F400321A43B0
:102DD0004A6090F82410890706D501684A68C36ADA
:102DE00022F480321A434A6090F82410490706D52D
:102DF00001684A68036B22F480221A434A6090F803
:102E00002410090706D501684A68436B22F4004282
:102E10001A434A6090F82410C90606D501688A68EA
:102E2000836B22F480521A438A6090F8241089063A
:102E300006D501688A68C36B22F400521A438A607F
:102E400090F82410490611D501684A68036C22F4F1
:102E500080121A434A60016CB1F5801F06D10168E7
:102E60004A68436C22F4C0021A434A6090F8241066
:102E7000090606D501684A68806C22F400220243E4
:102E80004A607047F8B500260446C0F88060FEF737
:102E9000EFF90546206800686FF07E47000708D507
:102EA0002B4600224FF400112046009700F018F93D
:102EB00060B92068006840070AD52B4600224FF40D
:102EC00080012046009700F00BF908B10320F8BDFF
:102ED0002020A067E067266684F874600020F8BDB3
:102EE0002DE9F0410446016880682269E3691043D6
:102EF000626900251A431043714F0A68714B1A40EA
:102F000002430A6020684168E26821F4405111439D
:102F100041602168A069B94201D0226A10438A68E1
:102F200022F4306202438A606749236867488B4213
:102F30000DD1D0F8880010F0030006D0012847D04A
:102F4000022843D0032830D144E001212EE060491B
:102F50008B420BD1D0F8880010F00C0034D004283C
:102F600036D0082832D00C281FD133E059498B4283
:102F70000BD1D0F8880010F0300025D0102827D0D1
:102F8000202823D0302810D124E0BB420DD1D0F826
:102F9000880010F4406017D0B0F5806F18D0B0F5FD
:102FA000006F13D0B0F5406F14D010214A4A0026AC
:102FB0004FF40040BB422FD171B102290FD0042938
:102FC0000FD0082973D10FE00021EFE70221EDE7D0
:102FD0000421EBE70821E9E7FEF7E8FE03E01046ED
:102FE00002E0FEF707FFE8B3626802EB42018142AC
:102FF0005DD8B0EB023F5AD8010E030250081818F2
:1030000071410023FDF732F9344AA0F54071914235
:103010004DD82168C8604BE0E3694FF6EF778342F3
:1030200028D1092943D2DFE801F005080B420D42FF
:1030300042421000FEF7BAFE06E0FEF7C9FE03E0CA
:10304000104602E0FEF7D6FE60B14100606801EB79
:103050005001B1FBF0F0A0F11001B94227D84FF6B2
:10306000F07100E024E00140C0F342000143206819
:10307000C1601DE009291AD2DFE801F005080B192B
:103080000D1919191000FEF791FE06E0FEF7A0FEDB
:1030900003E0104602E0FEF7ADFE48B1616800EBC8
:1030A0005100B0FBF1F0A0F11001B94205D90125A2
:1030B00066662846A666BDE8F08180B2A9E70000F2
:1030C00000800040F369FFEF00380140001002402B
:1030D00000440040004800400024F400FFFC0F00C2
:1030E0002DE9F0479A4617460E4604464FF0000970
:1030F0004FF02008089D4AE0681C48D0FEF7B8F859
:10310000A0EB0A00A8422AD84DB3206801684907FD
:103110003DD5C069C043000539D421684FF4006033
:103120000862206850E8001F21F4D07140E80012C6
:10313000002AF6D12068083050E8001F21F0010174
:1031400040E80012002AF5D1C4F87880C4F87C80E9
:10315000C4F8808084F874900320BDE8F08721686B
:1031600051E8000F20F4D07041E80002002AF6D1A7
:103170002068083050E8001F21F0010140E80012EB
:10318000002AF5D1C4F87880C4F87C80E2E7206892
:10319000C06936EA000004D00020B842ACD000205C
:1031A000DBE70120F9E7FEE710B50721152000F065
:1031B000D7F8002010BD10B51620FFF7A1FDC0B252
:1031C000012801D0012010BD0021162000F0C8F810
:1031D00000F01BF8002010BD10B54F20FFF790FD48
:1031E00000F00700042804D04F20FFF789FD0120DC
:1031F00010BD002010BD6220FFF782BD10B5032175
:10320000182000F0ADF8002010BD10B5012140F2EB
:10321000072000F0A5F801214FF4027000F0A0F89B
:103220000021962000F09CF8FD21972000F098F8EE
:103230000021E32000F094F80421E42000F090F84D
:103240000221E52000F08CF80121E62000F088F84A
:103250000321E72000F084F80221F52000F080F837
:103260000521D92000F07CF8CE21DB2000F078F891
:103270000321DC2000F074F8F821DD2000F070F864
:1032800000219F2000F06CF83C21A32000F068F89A
:103290000021B72000F064F83C21BB2000F060F86A
:1032A0000921B22000F05CF80921CA2000F058F88A
:1032B00001214FF4CC7000F053F817214FF4D8706F
:1032C00000F04EF8002140F2AD1000F049F8052161
:1032D000FF2000F045F805214FF4807000F040F821
:1032E000052140F2991000F03BF81B214FF4D370F8
:1032F00000F036F83E214FF4D67000F031F81F216F
:1033000040F2A71000F02CF80021302000F028F83F
:103310001021112000F024F830214FF4857000F0C6
:103320001FF846213F2000F01BF8FF21312000F05C
:1033300017F86321402000F013F801212E2000F03F
:103340000FF809211B2000F00BF831213E2000F07E
:1033500007F82421BDE81040142000F001B8000057
:103360001CB5020A8DF804208DF805004FF0FF30DF
:103370008DF806100090032301AA52210148FEF7A0
:10338000C3F81CBD140300200907090E002804DB44
:1033900000F1E02080F80014704700F00F0000F109
:1033A000E02080F8141D704730B5ADB00D460446DE
:1033B00027AB06222AA9082083E807009C2204F1F3
:1033C00010016846FCF7C9FF94E80F0000F0FCFE0E
:1033D000002822D1A07B10B3B7EE000ABDF9A800E7
:1033E00000EE900AF8EEE00A80EE801A85ED001AF1
:1033F000BDF9AA0000EE900AF8EEE00A80EE801A0D
:1034000085ED011ABDF9AC0000EE900A0020F8EE3F
:10341000E00A80EE801A85ED021A2DB030BD9FEDD6
:10342000010ADBE70000C842F0B50D46ABB01E460E
:1034300017460446012100F019FF00282BD1002176
:10344000204600F0F8FE002825D10C20FDF7E6FD0F
:103450003D43354327AB8DF8A85001222AA9082007
:1034600083E807009C2204F110016846FCF775FF11
:1034700094E80F0000F07DFF00280CD12179204650
:1034800000F0D9FE002806D11820FDF7C7FD002165
:10349000204600F0EBFE2BB0F0BD000030B5ABB025
:1034A0000D46044627AB02222AA9082083E807001C
:1034B0009C2204F110016846FCF74FFF94E80F00CE
:1034C00000F082FE00280ED1BDF9A80000EE100A1F
:1034D000A07BF8EEC00A40B1B7EE000A002080EEF3
:1034E000801A85ED001A2BB030BD9FED010AF5E77B
:1034F0000000C84230B5ABB00D46044627AB0222EF
:103500002AA90A2083E807009C2204F110016846DA
:10351000FCF723FF94E80F0000F056FE00280ED1C0
:10352000BDF9A80000EE100AA07BF8EEC00A40B179
:10353000B7EE000A002080EE801A85ED001A2BB04D
:1035400030BD9FED010AF5E70000C84230B5ABB0D1
:103550000D46044627AB02222AA90C2083E8070067
:103560009C2204F110016846FCF7F7FE94E80F0076
:1035700000F02AFE00280ED1BDF9A80000EE100AC6
:10358000A07BF8EEC00A40B1B7EE000A002080EE42
:10359000801A85ED001A2BB030BD9FED010AF5E7CA
:1035A0000000C84230B5ADB00D46044627AB062238
:1035B0002AA91A2083E807009C2204F1100168461A
:1035C000FCF7CBFE94E80F0000F0FEFD002822D1AE
:1035D000607C10B39FED120ABDF9A80000EE900ABE
:1035E000F8EEE00A80EE801A85ED021ABDF9AA0015
:1035F00000EE900AF8EEE00A80EE801A85ED001ADF
:10360000BDF9AC0000EE900A0020F8EEE00A80EE72
:10361000801A85ED011A2DB030BDB3EE000ADBE74C
:103620000000614430B5ABB00D46044627AB022222
:103630002AA91E2083E807009C2204F11001684695
:10364000FCF78BFE94E80F0000F0BEFD00280ED1C1
:10365000607C70B19FED080ABDF9A80000EE900AE9
:103660000020F8EEE00A80EE801A85ED001A2BB0FB
:1036700030BDB3EE000AEFE70000614430B5ABB0F7
:103680000D46044627AB02222AA91C2083E8070026
:103690009C2204F110016846FCF75FFE94E80F00DD
:1036A00000F092FD00280ED1607C70B19FED080AF9
:1036B000BDF9A80000EE900A0020F8EEE00A80EEC6
:1036C000801A85ED001A2BB030BDB3EE000AEFE78B
:1036D0000000614430B5ABB00D46044627AB022272
:1036E0002AA91A2083E807009C2204F110016846E9
:1036F000FCF733FE94E80F0000F066FD00280ED1C1
:10370000607C70B19FED080ABDF9A80000EE900A38
:103710000020F8EEE00A80EE801A85ED001A2BB04A
:1037200030BDB3EE000AEFE70000614430B5ADB044
:103730000D46044627AB06222AA92E2083E807005F
:103740009C2204F110016846FCF707FE94E80F0084
:1037500000F03AFD002822D1A07B10B3B7EE000A9A
:10376000BDF9A80000EE900AF8EEE00A80EE801A9B
:1037700085ED001ABDF9AA0000EE900AF8EEE00A05
:1037800080EE801A85ED011ABDF9AC0000EE900ABA
:103790000020F8EEE00A80EE801A85ED001A2DB0C8
:1037A00030BD9FED010ADBE70000C84230B5ABB089
:1037B0000D46044627AB02222AA92E2083E80700E3
:1037C0009C2204F110016846FCF7C7FD94E80F0045
:1037D00000F0FAFC00280ED1A07B70B1B7EE000A11
:1037E000BDF9A80000EE900A0020F8EEE00A80EE95
:1037F000801A85ED001A2BB030BD9FED010AEFE76E
:103800000000C84230B5ABB00D46044627AB0222DB
:103810002AA9302083E807009C2204F110016846A1
:10382000FCF79BFD94E80F0000F0CEFC00280ED1C1
:10383000A07B70B1B7EE000ABDF9A80000EE900AB7
:103840000020F8EEE00A80EE801A85ED001A2BB019
:1038500030BD9FED010AEFE70000C84230B5ABB0C4
:103860000D46044627AB02222AA9322083E807002E
:103870009C2204F110016846FCF76FFD94E80F00EC
:1038800000F0A2FC00280ED1A07B70B1B7EE000AB8
:10389000BDF9A80000EE900A0020F8EEE00A80EEE4
:1038A000801A85ED001A2BB030BD9FED010AEFE7BD
:1038B0000000C842F0B50D46ABB01E4617460446A0
:1038C000012100F0D3FC00282CD10021204600F07B
:1038D000B2FC002826D10C20FDF7A0FB3D438DF85B
:1038E000A85027AB8DF8A96002222AA90A2083E8F4
:1038F00007009C2204F110016846FCF72EFD94E8B5
:103900000F0000F036FD00280CD12179204600F090
:1039100092FC002806D11820FDF780FB00212046EC
:1039200000F0A4FC2BB0F0BD30B5ADB00D460446A0
:1039300027AB06222AA9142083E807009C2204F161
:1039400010016846FCF709FD94E80F0000F03CFC0C
:10395000002822D1207C10B39FED120ABDF9A800E7
:1039600000EE900AF8EEE00A80EE801A85ED001A6B
:10397000BDF9AA0000EE900AF8EEE00A80EE801A87
:1039800085ED011ABDF9AC0000EE900A0020F8EEBA
:10399000E00A80EE801A85ED021A2DB030BDB3EE3C
:1039A000000ADBE70000614430B5ABB00D460446C9
:1039B00027AB02222AA9142083E807009C2204F1E5
:1039C00010016846FCF7C9FC94E80F0000F0FCFB0E
:1039D00000280ED1BDF9A80000EE100A207CF8EEF8
:1039E000C00A40B19FED050A002080EE801A85EDE7
:1039F000001A2BB030BDB3EE000AF5E700006144B9
:103A000030B5ABB00D46044627AB02222AA91620DA
:103A100083E807009C2204F110016846FCF79DFC36
:103A200094E80F0000F0D0FB00280ED1BDF9A800EB
:103A300000EE100A207CF8EEC00A40B19FED050AA6
:103A4000002080EE801A85ED001A2BB030BDB3EE59
:103A5000000AF5E70000614430B5ABB00D460446FE
:103A600027AB02222AA9182083E807009C2204F130
:103A700010016846FCF771FC94E80F0000F0A4FB0D
:103A800000280ED1BDF9A80000EE100A207CF8EE47
:103A9000C00A40B19FED050A002080EE801A85ED36
:103AA000001A2BB030BDB3EE000AF5E70000614408
:103AB00010B5ACB0044600208DF8A800A1792AAA60
:103AC0004900A17101212991CDE927029C2204F12D
:103AD00010016846FCF741FC94E80F0000F074FB0D
:103AE000002804D19DF8A800A02802D006202CB000
:103AF00010BD0021204600F09EFB0028F7D10220D7
:103B0000FDF78CFA204600F07BFB4FF47A70FDF74E
:103B100085FA0021204600F0D1FB0028E7D10A20D9
:103B2000FDF77CFA0021204600F0A0FB0028DED142
:103B30000C20FDF773FA204600F044FA2179204664
:103B400000F079FB0028D2D11820FDF767FA23484E
:103B500044F8240F224860602248A0602248E060B8
:103B600022482061224860612248A0612248E06129
:103B700022482062224860622248A0622248E06215
:103B800022482063224860632248A0632248E06301
:103B900022482064224860642248A0642248E064ED
:103BA000224820652248E065224860652248A065D9
:103BB00022482066224860662248A0662248E066C5
:103BC00022482067224860672248E0672248C4F8FC
:103BD00080002248C4F88400002088E72D430008B4
:103BE0009D340008F53400084D350008A93300085D
:103BF000E13C0008393D0008913D0008613C0008A7
:103C0000A9390008013A0008593A00082939000882
:103C1000D53E0008253F0008753F0008E93D000833
:103C2000AD370008053800085D3800082D3700085A
:103C3000D53600087D36000825360008A535000871
:103C400089400008D940000829410008794100084E
:103C5000FD3F000829340008B5380008613E00081F
:103C600030B5ADB00D46044627AB06222AA9282060
:103C700083E807009C2204F110016846FCF76DFB05
:103C800094E80F0000F0A0FA002822D1A07B10B326
:103C9000B7EE000ABDF9A80000EE900AF8EEE00ABF
:103CA00080EE801A85ED001ABDF9AA0000EE900A98
:103CB000F8EEE00A80EE801A85ED011ABDF9AC003D
:103CC00000EE900A0020F8EEE00A80EE801A85ED02
:103CD000021A2DB030BD9FED010ADBE70000C8429B
:103CE00030B5ABB00D46044627AB02222AA92820E6
:103CF00083E807009C2204F110016846FCF72DFBC5
:103D000094E80F0000F060FA00280ED1BDF9A80079
:103D100000EE100AA07BF8EEC00A40B1B7EE000A30
:103D2000002080EE801A85ED001A2BB030BD9FED8B
:103D3000010AF5E70000C84230B5ABB00D460446B5
:103D400027AB02222AA92A2083E807009C2204F13B
:103D500010016846FCF701FB94E80F0000F034FA0C
:103D600000280ED1BDF9A80000EE100AA07BF8EEE5
:103D7000C00A40B1B7EE000A002080EE801A85ED3F
:103D8000001A2BB030BD9FED010AF5E70000C842D4
:103D900030B5ABB00D46044627AB02222AA92C2031
:103DA00083E807009C2204F110016846FCF7D5FA6D
:103DB00094E80F0000F008FA00280ED1BDF9A80021
:103DC00000EE100AA07BF8EEC00A40B1B7EE000A80
:103DD000002080EE801A85ED001A2BB030BD9FEDDB
:103DE000010AF5E70000C84230B5ADB00C46054603
:103DF00027AB06222AA90E2083E807009C2205F1A2
:103E000010016846FCF7A9FA95E80F0000F0DCF90C
:103E1000002820D1BDF9A80000EE100AF8EEC00A73
:103E20009FED0E0A60EE800AC4ED000ABDF9AA00FB
:103E300000EE900AF8EEE00A60EE800AC4ED010A96
:103E4000BDF9AC0000EE900A0020F8EEE00A20EE8A
:103E5000800A84ED020A2DB030BD00000000803DD4
:103E6000F0B50D46ABB01E4617460446012100F0E2
:103E7000FDF900282BD10021204600F0DCF90028B4
:103E800025D10C20FDF7CAF83D43354327AB8DF80B
:103E9000A85001222AA9092083E807009C2204F1E6
:103EA00010016846FCF759FA94E80F0000F061FA37
:103EB00000280CD12179204600F0BDF9002806D158
:103EC0001820FDF7ABF80021204600F0CFF92BB009
:103ED000F0BD000030B5ABB00D46044627AB022262
:103EE0002AA90E2083E807009C2204F110016846ED
:103EF000FCF733FA94E80F0000F066F900280CD1C3
:103F0000BDF9A800DFED060A00EE100A0020B8EEA9
:103F1000C00A20EE200A85ED000A2BB030BD00005B
:103F20000000803D30B5ABB00D46044627AB022201
:103F30002AA9102083E807009C2204F1100168469A
:103F4000FCF70BFA94E80F0000F03EF900280CD1C2
:103F5000BDF9A800DFED060A00EE100A0020B8EE59
:103F6000C00A20EE200A85ED000A2BB030BD00000B
:103F70000000803D30B5ABB00D46044627AB0222B1
:103F80002AA9122083E807009C2204F11001684648
:103F9000FCF7E3F994E80F0000F016F900280CD1C3
:103FA000BDF9A800DFED060A00EE100A0020B8EE09
:103FB000C00A20EE200A85ED000A2BB030BD0000BB
:103FC0000000803D10B5ACB0044600208DF8A8007C
:103FD00027AB01222AA93F2083E807009C2204F195
:103FE00010016846FCF7B9F994E80F0000F0C1F938
:103FF000002800D001202CB010BD000030B5ADB0BD
:104000000C46054627AB08222AA9202083E8070092
:104010009C2205F110016846FCF79FF995E80F0016
:1040200000F0D2F800282AD1BDF9A80000EE100A4D
:10403000F8EEC00A9FED130A60EE800AC4ED030A91
:10404000BDF9AA0000EE900AF8EEE00A60EE800AE0
:10405000C4ED000ABDF9AC0000EE900AF8EEE00AEB
:1040600060EE800AC4ED010ABDF9AE0000EE900AD0
:104070000020F8EEE00A20EE800A84ED020A2DB05E
:1040800030BD00000000803830B5ABB00D460446AE
:1040900027AB02222AA9202083E807009C2204F1F2
:1040A00010016846FCF759F994E80F0000F08CF80D
:1040B00000280CD1BDF9A800DFED060A00EE100AB9
:1040C0000020B8EEC00A20EE200A85ED000A2BB0D1
:1040D00030BD00000000803830B5ABB00D4604465E
:1040E00027AB02222AA9222083E807009C2204F1A0
:1040F00010016846FCF731F994E80F0000F064F80D
:1041000000280CD1BDF9A800DFED060A00EE100A68
:104110000020B8EEC00A20EE200A85ED000A2BB080
:1041200030BD00000000803830B5ABB00D4604460D
:1041300027AB02222AA9242083E807009C2204F14D
:1041400010016846FCF709F994E80F0000F03CF80C
:1041500000280CD1BDF9A800DFED060A00EE100A18
:104160000020B8EEC00A20EE200A85ED000A2BB030
:1041700030BD00000000803830B5ABB00D460446BD
:1041800027AB02222AA9262083E807009C2204F1FB
:1041900010016846FCF7E1F894E80F0000F014F80D
:1041A00000280CD1BDF9A800DFED060A00EE100AC8
:1041B0000020B8EEC00A20EE200A85ED000A2BB0E0
:1041C00030BD0000000080382DE9F8434FF0FF3586
:1041D000DDE93087C1F30746044601232FAA3146A3
:1041E0000095FDF791F940B9BBB2204642463146F1
:1041F0000095FDF7F3F8002800D00120BDE8F88312
:1042000010B5ACB0044620208DF8A80027AB0122E1
:104210002AA93F2083E807009C2204F11001684688
:10422000FCF79BF894E80F0000F0A3F8002800D0FA
:1042300001202CB010BD13B5AAB0044627AB012253
:104240002BA93D2083E807009C2204F11001684659
:10425000FCF783F894E80F0000F08BF8002803D1F6
:104260001820FCF7DBFE00202CB010BD13B5AAB05F
:104270000446417B9DF8AC00814202D000202CB066
:1042800010BD012801D90220F9E727AB01222BA993
:10429000072083E807009C2204F110016846FCF720
:1042A0005CF894E80F0000F064F80028E7D19DF86E
:1042B000AC0060730220FCF7B1FEDFE713B5AAB0D3
:1042C000040031D00021FFF7B6FF00282AD10021D9
:1042D0002046FFF7CBFF002824D127AB01222BA9D2
:1042E0003E2083E807009C2204F110016846FCF799
:1042F00034F894E80F0000F03CF8002812D19DF843
:10430000AC00207300212046FFF7B0FF002809D140
:1043100021792046FFF78FFF002803D10220FCF708
:104320007DFE00202CB010BD0420FBE730B5ABB003
:10433000044600200D468DF8A80027AB01222AA9CB
:10434000342083E807009C2204F110016846FCF742
:1043500004F894E80F00FFF737FF002807D1E07B4F
:1043600000289DF8A80000D04000287000202BB045
:1043700030BD3EB54FF0FF35DDE92D242F9B92B2C5
:104380009BB2CDE90043C1F307410295FDF752F915
:10439000002800D001203EBD0248016881F4805110
:1043A00001607047140400482DED0A8BEAB0FDF758
:1043B0009FFAFEF7C4FCFEF7BBFBFEF79BFBFEF784
:1043C000E7FBFEF73DFCFEF70FFCFEF70FFBFEF7E9
:1043D00055FBF748FCF7EAFC0A20FCF71FFEF548FE
:1043E000FCF7E4FC01211020FEF7BAFF0A20FCF7DD
:1043F00015FEFEF7E0FEF04C6061FEF7FFFE606127
:10440000AC2102A8FBF7DBFFAC22EC4902A8FBF7CA
:10441000A4FFAC2202A9EA48FBF79FFFAC212DA81C
:10442000FBF7CDFFE549AC22AC312DA8FBF795FF9A
:10443000E348AC222DA9AC30FBF78FFFE048FFF733
:1044400037FB6070DE48AC30FFF732FBDFF870936B
:10445000A07058A9D9F88420484690479DED580A85
:1044600009F1AC0684ED150A9DED590A5BA984EDAE
:10447000160A9DED5A0A304684ED170AD6F88420B4
:1044800090479DED5B0A04F10A0284ED1B0A9DED45
:104490005C0ACD2184ED1C0A9DED5D0AAB2084ED04
:1044A0001D0A01F0E9F8606C0025012809D10027F8
:1044B000FFF772FF3220FCF7B1FD7F1C0A2FF7DBFC
:1044C00065644FF4206AB2EE048ADFEDBE8ADFF83D
:1044D000F8B29FEDBECABE4FB5483946FCF7E8FBBF
:1044E00050B9B348FCF7B1FAE080E088504502D2F9
:1044F0000120E07000E0E5703946AE48FCF7D8FBDB
:1045000050B9AC48FCF7A1FA20812089504502D26D
:104510000120207100E02571D9F8842058A9A8480D
:10452000904760709DED580AA54884ED120ADDEDB4
:10453000590A5BA9C4ED130A9DED5A1AAC3084EDFB
:10454000141AD4ED151A30EE610A84ED090A94EDBF
:10455000160A30EEC00A84ED0A0A94ED170A31EE0D
:10456000400A84ED0B0AA563D6F884209047A0701A
:104570009DED5B0A924884ED180A9DED5C0A5FA9E7
:1045800084ED190A9DED5D0AAC3084ED1A0A726C57
:104590009047A0709DED5F0A874984ED1E0A9DED4E
:1045A000600A803184ED1F0A9DED610A81ED000AE9
:1045B00094ED1E0ABDEEC00A10EE100A002800DAC3
:1045C000404200EE100AB8EEC00A84ED060A94EDEF
:1045D0001F0ABDEEC00A10EE100A002800DA4042A1
:1045E00000EE100AB8EEC00A84ED070A91ED000A49
:1045F000BDEEC00A10EE100A002800DA404200EEBC
:10460000100AB8EEC00A84ED080AFEF7E5FD606105
:1046100028B1FEF7D0FD6061FEF7F0FD6061FEF7A6
:10462000EAFDE063FEF7C0FD94ED080A10EE100A03
:1046300001F0F2FA94ED070A41EC190B10EE100AA2
:1046400001F0EAFA94ED060A41EC1B0B10EE100A99
:1046500001F0E2FA94ED0C0A41EC1A0B10EE100A8C
:1046600001F0DAFA9FED5B1B53EC112B01F0ECF833
:1046700053EC1A2B01F040F853EC1B2B01F03CF8E3
:1046800053EC192B01F038F801F004F800EE100A91
:1046900084ED0C0A206C0C2875D009DC0C2825D27E
:1046A000DFE800F01FEFEE24EDECEBEAE9E8E7E6E7
:1046B000122810D008DCA0F10D000528EFD2DFE8A9
:1046C00000F0F0EF0A0A0A002D2809D004DC1328B4
:1046D000EFD014280AD104E32E28F6D02F28F9D1E0
:1046E00093E3E078012802D0B0B103D07AE22079D8
:1046F000012802D02079E0B174E20420206494ED16
:10470000120A84ED150A94ED130A84ED160A94ED4D
:10471000140A84ED170A65E220790128E6D1E06BDE
:10472000282801DA012069E2E06B6428DEDD02203E
:1047300064E2A06C294A8646904201D2012000E042
:10474000002027498E4501DA012300E0002394ED83
:10475000130A184010EE103A224FBB4201D2012337
:1047600000E00023B5EEC00A1840F1EE10FA01D2C5
:10477000012300E000231840236D1B4F6393BB42CD
:1047800002DD012301E0EFE300231840DFF85C8045
:10479000639B434501DA012300E00023D4ED180AAE
:1047A000184010EE903A934222D2012321E00000FB
:1047B000F80100205C02002000000020105D0008CD
:1047C000A000002000001442140400480000000073
:1047D00040420F009A9999999999E93F00000CC2BB
:1047E00000000C42000034C300006B43008098437B
:1047F0000023D4ED180A184010EE903A8B4201DAEB
:10480000012300E00023D4ED190A1840F5EEC00A98
:10481000F1EE10FA01DD012300E00023D4ED190AC6
:10482000184010EE90CAFD4B9C4502DA4FF0010C87
:1048300001E04FF0000CD4ED1A0A00EA0C0010EE73
:1048400090CABC4501DD012700E00027D4ED1A0A1B
:10485000384010EE907A474501DA012700E0002742
:10486000384201D00920BAE196450BD201200AE076
:10487000C6E34BE3D0E2BEE2ADE2A2E291E2F1E1B7
:10488000BDE1B0E100208E4501DA012700E00027FC
:10489000384010EE10CAE24FBC4503D2012702E0B7
:1048A000EEE3EEE30027B5EEC00A3840F1EE10FA71
:1048B00001D2012700E000273840639F8F4201DDCD
:1048C000012700E000273840D64FDDF88CC1BC45F9
:1048D00002DA4FF0010C01E04FF0000CD4ED180AA1
:1048E00000EA0C0010EE90CA944501D2012200E0CB
:1048F0000022D4ED180A104010EE902A8A4201DA04
:10490000012200E00022D4ED190A1040F5EEC00AA1
:10491000F1EE10FA01DD012200E00022D4ED190AC7
:10492000104010EE902A9A4201DA012200E00022A3
:10493000D4ED1A0A104010EE902A8A4201DD0121BE
:1049400000E00021D4ED1A0A084010EE901AB94296
:1049500001DA012100E00021084201D00A203EE1F5
:10496000B14B9E4501DD012100E00021AF488645A5
:1049700001DA012200E00022D4ED180A114010EE05
:10498000902AAB4FBA4201D2012200E00022D4EDBE
:10499000180A114010EE90CAA64A944502D94FF069
:1049A000010C01E04FF0000C11EA0C0F01D00B20BC
:1049B00015E1BE4501D2012100E00021964501D953
:1049C000012200E00022D4ED180A114010EE902AD6
:1049D000954B9A4201DD012200E00022D4ED180A35
:1049E000114010EE902A824201DA012200E00022FA
:1049F000114201D00C20F2E08F4B9E4501D20121E3
:104A000000E000218D4A964501DA012700E00027E9
:104A1000394010EE10CA8A4FBC4501D2012700E090
:104A20000027394010EE10CA864FBC4501D9012736
:104A300000E000273940814FDDF88CC17F420CEB4C
:104A40000708DFF804C2E04502D34FF0010C01E093
:104A50004FF0000CD4ED180A01EA0C0110EE90CAD8
:104A60009C4502D24FF0010C01E04FF0000CD4ED58
:104A7000180A01EA0C0110EE90CA944502DA4FF0D0
:104A8000010C01E04FF0000CD4ED190A01EA0C0111
:104A900010EE90CADFF8B481C44502DD4FF0010C7E
:104AA00001E04FF0000CD4ED190A01EA0C0110EE00
:104AB00090CADFF89C81C44502DA4FF0010C01E096
:104AC0004FF0000CD4ED1A0A01EA0C0110EE90CA66
:104AD000944507DBD4ED1A0ADFF8788110EE90CA0E
:104AE000C44502DD4FF0010C01E04FF0000C11EA6B
:104AF0000C0F01D00D2072E09E4501D2012100E093
:104B00000021964502DA4FF0010C01E04FF0000C55
:104B100001EA0C0110EE10CADFF82481C44502D26C
:104B20004FF0010C01E04FF0000C01EA0C0110EE17
:104B300010CADFF81081C44502D94FF0010C01E022
:104B40004FF0000C01EA0C01DDF88CC1BC443E4F73
:104B5000BC4501D3012700E0002794ED180A394035
:104B600010EE107A9F4201D2012300E0002394ED61
:104B7000180A194010EE103A934201DA012200E0BF
:104B8000002294ED190A114010EE102A264B9A4289
:104B900001DD012200E0002294ED190A114010EE1F
:104BA000102A824201DA012000E0002094ED1A0A66
:104BB000014010EE100A284A904201DD012000E079
:104BC000002094ED1A0A014010EE100A234A904288
:104BD00001DA012000E00020014203D00E20206411
:104BE00084ED0CCA05E3E07800287AD12079012809
:104BF000FBD1E06B28287FF795AD05206DE3E078C9
:104C00000028F2D120790128EFD1E06B5028BFF6BF
:104C10008EADE06B28287FF78AAD21E00000344399
:104C2000000034C3000011430000204200000C4388
:104C300000000CC3000020C20000C8C10000C84131
:104C40000000E6C2000082C20180DF010000824253
:104C50000000E6420080A7430000394300809343F0
:104C600007203AE3E0780128BFD120790128BCD1A0
:104C700094ED090ABDEEC00A10EE100A94ED0A0A7E
:104C80000028BDEEC00A10EE101A00DA40420029DA
:104C900000DA4942884225DD94ED090ABDEEC00ADA
:104CA00010EE101A94ED0B0A0029BDEEC00A10EEAA
:104CB000100A00DA4942002800DA4042814211DD40
:104CC00094ED090ABDEEC00A10EE100A002800DAC1
:104CD000404200EE100A0120B8EEC00A84ED0D0A31
:104CE00049E098E094ED0A0ABDEEC00A10EE100A01
:104CF00094ED0B0A0028BDEEC00A10EE101A00DA7F
:104D00004042002900DA4942884224DD94ED0A0A33
:104D1000BDEEC00A10EE100A94ED090A0028BDEE9F
:104D2000C00A10EE101A00DA4042002900DA4942A7
:104D3000884210DD94ED0A0ABDEEC00A10EE100A9A
:104D4000002800DA404200EE100A0220B8EEC00A45
:104D500084ED0D0A0FE094ED0B0ABDEEC00A10EED3
:104D6000100A002800DA404200EE100A0320B8EED4
:104D7000C00A84ED0D0AA06310EE100AF8498842BB
:104D80000DDDA06B012804D0022804D003286FD1C8
:104D900003E02D20A1E22E209FE22F209DE204209F
:104DA0009BE2E078002836D12079012833D1E06BEE
:104DB000502801DD062090E2E06B2828BFF61DAFE9
:104DC000B0E4E078002826D12079012823D1E06BD7
:104DD0005028EFDA11E7E07800281CD1207901286B
:104DE00019D1E06B282801DA082076E2E06B64280C
:104DF0007FF713AF9BE4E07800280CD120790128DD
:104E000009D1E06B2828EFDD07E7E078012802D11F
:104E100020790128C3D0EBE1E078012829D120795D
:104E200038BBD04FA26CBA4201D2012000E0002072
:104E3000CD498A4201DA012200E0002294ED130AF2
:104E4000104010EE102AC94B9A4201D2012200E014
:104E50000022B5EEC00A1040F1EE10FA01D2012294
:104E600000E000221040226D8A4203DD012302E0AF
:104E7000BFE17AE000231840BD4B9A4201DA0122DB
:104E800000E0002294ED180A104010EE102ABA42F9
:104E900001D2012200E0002294ED180A104010EE29
:104EA000102A8A4201DA012200E0002294ED190A58
:104EB0001040B5EEC00AF1EE10FA01DD012200E06B
:104EC000002294ED190A104010EE102AA94FBA42A0
:104ED00001DA012200E0002294ED1A0A104010EEDF
:104EE000102A8A4201DD012100E0002194ED1A0A16
:104EF000084010EE101A994201DA012100E0002169
:104F0000084201D01020E8E1206CE6E1E0780128B9
:104F10002BD1207948BB934AA16C914201D2012048
:104F200000E00020DFF840C2614501DA012100E025
:104F3000002194ED130A084010EE101A8B4B994291
:104F400001D2012100E00021B5EEC00A0840F1EED7
:104F500010FA01D2012100E000210840864B216DAA
:104F6000994203DD012702E07BE088E0002738401A
:104F7000824FB94201DA012100E0002194ED180AC4
:104F8000084010EE101A914201D2012100E00021E8
:104F900094ED180A084010EE101A614501DA01215B
:104FA00000E0002194ED190A0840B5EEC00AF1EEC8
:104FB00010FA01DD012100E0002194ED190A0840FA
:104FC00010EE101A6B4A914201DA012100E0002133
:104FD00094ED1A0A084010EE101A994201DD0121E1
:104FE00000E0002194ED1A0A084010EE101AB942B0
:104FF00001DA012100E00021084285D00F206CE198
:10500000E07801283BD12079C8BB94ED120A5749BA
:1050100010EE100A884201D2012000E00020B5EE17
:10502000C00AF1EE10FA01D2012100E0002194ED56
:10503000180A0840B5EEC00AF1EE10FA01DD0121B0
:1050400000E0002194ED180A084010EE101A494AB9
:10505000914201DA012100E000210842CDD0122066
:105060003BE1E07801280AD1207940B994ED120A99
:10507000B5EEC00AF1EE10FA04DD012003E059E0BC
:10508000B1E022E0002010EE101A3A4A914201DA13
:10509000012100E0002194ED180A084010EE101ADA
:1050A000324A914201D2012100E0002194ED180A18
:1050B0000840B5EEC00AF1EE10FA01D2012100E07D
:1050C0000021084299D0112007E1E078012831D170
:1050D000207978BB2A48A36C834201D2012100E0E9
:1050E0000021284A934201DA012300E000231940FD
:1050F000254FE36CBB4201D2012700E00027394075
:10510000224FBB4201D9012300E0002319401D4F6B
:10511000236D7F423B441E4FBB4201D3012300E07D
:10512000002394ED180A194010EE103A834202D27F
:10513000012001E05CE0002094ED180A014010EE2F
:10514000100A904201DA012000E0002094ED190AD3
:10515000014010EE100A0F4A90421DDD01201CE0B4
:105160000000204100000CC200000C42000034C3CB
:10517000000011430000344300006B43008098435B
:105180000000C8C10000C8410000E6C2000082C2A1
:105190000180DF0100002042002094ED190A014047
:1051A00010EE100AF94A904201DA012000E00020D6
:1051B00094ED1A0A014010EE100AF54A904201DD02
:1051C000012000E0002094ED1A0A014010EE100AC0
:1051D000F04A904201DA012000E0002001423FF451
:1051E00093AE142079E0E078012801D1207970B1E4
:1051F0002564206C0C2872D074DC0C2871D2DFE896
:1052000000F08A9B9B70A5ACB0B4B86E6E6EE24A9B
:10521000A06C904201D2012300E00023DF498842C4
:1052200001DA012000E000200340DD4FE06CB842CD
:1052300001D2012700E000273B40DA4FB84201D9F4
:10524000012000E000200340D44F206D7F4238440D
:10525000D54FB84201D3012000E0002094ED180A98
:10526000034010EE100A904201D2012000E000201D
:1052700094ED180A034010EE100A884201DA01206A
:1052800000E0002094ED190A034010EE100AC74A0E
:10529000904201DD012000E0002094ED190A034056
:1052A00010EE100AC24A904201DA012000E000200C
:1052B00094ED1A0A034010EE100A884206DB94EDC2
:1052C0001A0ABC4910EE100A884201DD012000E0F4
:1052D000002003423FF418AE1320206489E708E160
:1052E00000E080E012287DD008DCA0F10D00052848
:1052F00079D2DFE800F0FEFEFDFCFB002D283CD05B
:1053000004DC132870D014286DD198E12E286CD0BD
:105310002F2868D1D2E0DBF8001021F48051CBF8BF
:10532000001094ED0C0AA44910EE100A884213DD17
:105330000A200090002046E1DBF8001041F4805183
:10534000CBF80010092000900420B5E0DBF8001035
:1053500041F48051CBF8001000E1092000900220B8
:10536000AAE0092000900320A6E009200090052073
:10537000A2E00920009006209EE00620009094ED17
:10538000090AB5EEC00AF1EE10FA14DD94ED090A2F
:10539000C0EE080ABCEEE00AD4ED150A10EE100AC1
:1053A000C0B200EB8000400000EE100AB8EE400AE8
:1053B00030EE200A1EE0D4ED090A80EE880AD4ED12
:1053C000150A30EE280ABCEEC00A10EE100AC0B270
:1053D00000EB8000400000EE100AB8EE400A30EE0C
:1053E000200A03E01BE1F1E021E112E0DFED730AA6
:1053F00030EE600A84ED150A94ED090AB5EEC00A94
:10540000F1EE10FA02DD94ED090A45E0D4ED090A47
:1054100049E00720009094ED0A0AB5EEC00AF1EECB
:1054200010FA14DD94ED0A0AC0EE080ABCEEE00A98
:10543000D4ED160A10EE100AC0B200EB8000400056
:1054400000EE100AB8EE400A30EE200A19E0D4ED62
:105450000A0A80EE880AD4ED160A30EE280ABCEE5D
:10546000C00A10EE100AC0B200EB8000400000EE4F
:10547000100AB8EE400A30EE200ADFED500A30EE96
:10548000600A84ED160A94ED0A0AB5EEC00AF1EE40
:1054900010FA06DD94ED0A0AC0EE080ABCEEE00A36
:1054A00007E0D4ED0A0A80EE880A30EE280ABCEE46
:1054B000C00A10EE100AC0B2019087E008200090E8
:1054C00094ED0B0AB5EEC00AF1EE10FA19DD94ED79
:1054D0000B0AC0EE080ABCEEE00A10EE100AC0B2D9
:1054E00000EB8000400000EE100A03E08FE086E051
:1054F00037E031E0B8EE400AD4ED170A30EE200A6A
:1055000019E0D4ED0B0A80EE880AD4ED170A30EECC
:10551000280ABCEEC00A10EE100AC0B200EB8000F0
:10552000400000EE100AB8EE400A30EE200ADFED2F
:10553000230A30EE600A84ED170A94ED0B0AB1EEEF
:10554000400AB5EEC00AF1EE10FA02DD94ED0B0A46
:10555000A2E7D4ED0B0AA6E7FEF71EFFFF2000909E
:10556000AAE7DBF8001021F48051CBF800100020EE
:105570006CE0032027E000BF94ED0C0A104910EE08
:10558000100A88426BDD02201DE0000000000C4381
:1055900000003943008093430000C8C10000C841A7
:1055A0000000E6C2000082C20180DF0100008242EA
:1055B0000000E6420080A743000048420000B443D8
:1055C000000020410120019084ED0CCA68990098E8
:1055D000814203D101995E9888420AD00098FF2841
:1055E00007D0234A019900F047F84FF47A70FBF78F
:1055F00015FD0098689001985E90FEF76CBFDBF88F
:10560000001021F48051CBF8001001201EE0DBF8DF
:10561000001021F48051CBF80010022016E0DBF8D6
:10562000001021F48051CBF8001003200EE0DBF8CD
:10563000001021F48051CBF80010042006E0DBF8C4
:10564000001021F48051CBF800100520009094ED5B
:105650000C0A084910EE100A88428DDD89E794EDA6
:105660000C0AB5EEC00AF1EE10FAADDDAAE70000B3
:105670000A0000200000704130B4107014465170D0
:105680002146642330BC02220148FCF76DBF0000B4
:10569000F803002021F00042A2F16052B2F5801F11
:1056A00001F0004328BFD2F17F6C0BD95FEA001CE8
:1056B00043EAC20242EB507018BF704728BF20F087
:1056C00001007047B2F5801FBCBF184670474FEA13
:1056D000410C1CF5001F02D2084600F013BB70B548
:1056E00000F05CF900000089FFF7F6BF4FF00040C2
:1056F000A0F580007047000010B591EA030F48BF85
:1057000083F0004300F1A681841A71EB030C05D2EB
:10571000121943EB0C03001B61EB0C01DFF824E1D1
:105720004FEA1154A4EB135C1EEA430F18BF9EEA24
:10573000445F73D023EA0E03DCF1200E21EA04510A
:1057400043F4801332D322FA0CFE10EB0E0023FA3E
:105750000CFE41EB0E01CCF1200E03FA0EFE10EB15
:105760000E0051F10001B1F5801FCCF1200E32D2B4
:1057700001EB045112FA0EF2BDE8104058BF704719
:10578000401C38BF5FEA420218BF7047002814BFB0
:1057900020F0010041F100014FEA410313F5001F21
:1057A00038BF7047A1F1C04100F046B9012A43EB70
:1057B0000302ACF1200CDCF11F0E32BF4FF0000EE3
:1057C00023FA0CF310EB030041EB0451B4EB115F2F
:1057D000D0D0A1EB045101F5801149085FEA3000F7
:1057E00001EB04510ED350F1000038BF12FA0EFE47
:1057F00008D1BDE81040C9E7401C38BF5FEA42024B
:10580000CAD1C3E7BDE810404FEA410313F5001FBA
:1058100038BF7047A1F1C04100F00EB99EEA445F65
:1058200008D011EA5E0FBDE8104004BF01F000414E
:1058300000207047BDE8104070B500F0AFF800BF21
:1058400064FBBE3E0000E0FFDFF848C170B51CEA13
:10585000111E1EBF1CEA13159EEA0C0F95EA0C0FD1
:1058600000F06F8081EA030423EA4C134EEAD47EF1
:1058700021EA4C1141F4801143F48013AE44A1FBA2
:10588000024CA0FB0365AEF17F7E361955EB0C058B
:10589000A1FB034C4CF10003A0FB021C16EB0C0611
:1058A000654153F10003094218BF46F0010613F4A5
:1058B000007F0BD14FEA03314FEA0530340341EA50
:1058C000155140EA16506FF003020AE04FEAC32177
:1058D0004FEAC520F40241EA555140EA56506FF0B4
:1058E000020202EB2E4201EB025585EACE710AD08C
:1058F0005FEA440C18BF24F0004450F1000041F16D
:10590000000120EAD47040F2FE7C624500D270BDF6
:10591000A84214BF4FF080444FF04044002E08BF0F
:105920000024BEF1806FA8BFA1F1C041BDE8704066
:1059300080F282804FF0000001F1C04101F000418F
:1059400070479EEA0C0F0CEA131518BF95EA0C0F6E
:1059500006D04FF0000081EA030E0EF0004170BD4A
:1059600000F01CF88900013E00F007B800F009B80B
:105970004FEA430C5FEA5C5C08D081EA030100F067
:105980005BB84FEA410C5FEA5C5CF6D14FF0000077
:10599000014970470000FF070000F87F0EF1020E7A
:1059A0002EF0030E5EF8046B364205D4012A43EB59
:1059B000030515F5001F12D8012841EB010C1CF559
:1059C000001F0CD80ED14FEAD17C15F5001F0CEB4F
:1059D0004C0C0CF1020C08BF4CEBD37C04E04FF0F4
:1059E000080C01E04FEAD37C0CEB4C0526FA05F6D7
:1059F00006F00706B6F1040C06D20EEB860CBDE8E5
:105A000070404CF0010C6047DFE80CF0090B02021B
:105A10004FF000414FF00000A1F5002170BD194684
:105A20001046012851EB010418BFD4F5001484BFBF
:105A3000002001F0004170BD0808A0F500114FEAF8
:105A40003101704710B591EA030F48BF83F000435E
:105A50003FF55AAE841A71EB030C07D212198CF081
:105A6000004C43EB0C03001B61EB0C01DFF8A4E1DD
:105A70004FEA1154A4EB135C1EEA430F18BF9EEAD1
:105A8000445F00F0B08023EA6E03524221EA0451E1
:105A9000C3EB6E0338BF5B1EDCF1200E25D322FA68
:105AA0000CFE10EB0E0043FA0CFE41EB0E01CCF1A4
:105AB000200E03FA0EFE10EB0E0051F10001CCF1A6
:105AC000200E29D412FA0EF201EB0451BDE8104069
:105AD00058BF7047401C1CBFB2F1004F70470028F0
